:100000000C941F010C944C010C944C010C944C0169
:100010000C944C010C944C010C944C010C944C012C
:100020000C944C010C944C010C944C010C944C011C
:100030000C944C010C944C010C944C010C944C010C
:100040000C944C010C9447110C944C010C944C01F1
:100050000C944C010C944C010C944C010C94E50A4A
:100060000C944C010C9499050C94E1060C944C01F1
:100070000C944C010C944C010C944C010C944C01CC
:100080000C9419110C944C010C944C010C944C01DF
:100090000C94D9050C9420070C944C010C944C0141
:1000A0000C944C010C944C010C94EB100C944C01EE
:1000B0000C944C010C944C010C944C010C94BD100C
:1000C0000C944C010C944C010C944C010C941906AA
:1000D0000C945F070C944C010C9459060C949E07E9
:1000E0000C944C013802AD043F024702AD04AD044C
:1000F00051025A0288029C02A202ED0251035603E9
:10010000C603AD04AD04AD04AD04AD04AD04AD044F
:10011000AD042D046E047704820400002100240045
:1001200027002A002D0030003300010100000401E7
:1001300007010A0100002200250028002B002E00E4
:100140003100340002010000050108010B0100002C
:1001500020002300260029002C002F00320000017F
:10016000000003010601090105050505070508084A
:100170000808020202020A0A080804040404010131
:100180000101010101010303030303030303040746
:1001900007070C0C0C0C0C0C0C0C020202020606DD
:1001A0000606060606060B0B0B0B0B0B0B0B0102D0
:1001B0001020200808102040102040800201020179
:1001C0000804020101020408102040808040201031
:1001D000080402018004020180402010080402018A
:1001E00008040201010204081020408001020408F2
:1001F000102040800000090A02080B0C0D070603BE
:1002000004010000000000000000000000000000E9
:1002100000000000000000000000000000000000DE
:1002200011100F000000000000000000000000009E
:10023000000000000000000000004E010E09112423
:100240001FBECFEFD1E2DEBFCDBF00E00CBF12E09A
:10025000A0E0B2E0E8E1F4E200E00BBF02C00790EA
:100260000D92A631B107D9F71BBE15E0A6E1B2E0A9
:1002700001C01D92AA38B107E1F712E0CEE3D2E047
:1002800004C02297FE010E940612CA33D107C9F7A3
:100290000E94D60A0C940A120C9400008DE192E0A0
:1002A0000E94120E80E292E00E94120E83E292E01F
:1002B0000E94120E86E292E00E94120E89E292E003
:1002C0000E94120E8CE292E00E94120E8FE292E0E7
:1002D0000E94120E82E392E00E94120E85E392E0E9
:1002E0000E94120E88E392E00E94120E8BE392E0CD
:1002F0000E94120E0895CF92DF92EF92FF920F9319
:100300001F93DF93CF9300D0CDB7DEB76C01498345
:100310005A836B837E010894E11CF11CC7010E9483
:10032000870E8C01C816D906A4F401501040C701ED
:10033000B8010E94DC0EC7010E94870E8C0169E1A2
:1003400070E080E090E00E942D0B0C151D0569F710
:1003500016C08C159D059CF40F5F1F4FC701B80197
:100360000E94DC0EC7010E94870E8C0169E170E0DB
:1003700080E090E00E942D0B0C151D0569F70F9091
:100380000F900F90CF91DF911F910F91FF90EF9001
:10039000DF90CF9008950F931F93CF93DF938C013D
:1003A0008BE392E00E94870EEC0108171907ACF46A
:1003B00021978BE392E0BE010E94DC0E8BE392E07A
:1003C0000E94870EEC0169E170E080E090E00E94FD
:1003D0002D0BC017D10761F717C080179107A4F440
:1003E00021968BE392E0BE010E94DC0E8BE392E04B
:1003F0000E94870EEC0169E170E080E090E00E94CD
:100400002D0BC017D10761F7DF91CF911F910F918D
:1004100008950F931F9304E614E0C80140E855E2E5
:1004200060E070E00E94DD07C8010E94BE081F91D5
:100430000F910895AF92BF92CF92DF92EF92FF9209
:100440000F931F93CF93DF93EC0188818F3F09F0C7
:1004500084C28981E82FF0E0EB31F10508F07DC21C
:10046000EE58FF4FEE0FFF1F0590F491E02D199409
:1004700084E694E060E072E00E948A0A6EC28A819B
:100480006B810E94FC0C84E694E06A8107C08A813B
:100490006B810E94AF0D84E694E060E30E94CE0879
:1004A00060C28A810E94E20D682F80931B029093A4
:1004B0001C023FC010921C0210921B02C0E0D0E050
:1004C00001E010E08C2F0E94E20D892B89F0980149
:1004D0000C2E02C0220F331F0A94E2F780911B02F8
:1004E00090911C02820F931F90931C0280931B0219
:1004F0002196CE30D10531F760911B0270911C021C
:10050000707084E694E00E94CE0860911C0211C0D5
:100510008A810E94E80B692F80931B0290931C0232
:1005200084E694E00E94CE0860911B0270911C0248
:10053000707084E694E0B2CF6B818A8170E00E9493
:100540001C0CA9CF88E392E060E070E00E94DC0E12
:1005500000D00F926A8170E080E090E02AE530E000
:1005600040E050E0EDB7FEB72183328343835483EC
:1005700020E030E040E050E014E6E12EF12C012DC7
:10058000112DAA24BB2465010E948D0A9B01709342
:100590003F0260933E020F900F900F900F90235AEE
:1005A0003F4F8DE192E0B9010E94DC0E60913E0266
:1005B00070913F02675A7F4F80E292E00E94DC0E0A
:1005C00060913E0270913F02645A7F4F83E292E055
:1005D0000E94DC0E09E510E0BAC088E392E060E01A
:1005E00070E00E94DC0E00D00F926A8170E080E023
:1005F00090E0EDB7FEB7118212821382148220E0E0
:1006000030E040E050E0B4E6EB2EF12C012D112D4E
:10061000AAE5AA2EB12CC12CD12C0E948D0A9B01D7
:1006200070933F0260933E020F900F900F900F90D7
:100630006DE570E0621B730B8DE192E00E94DC0EB1
:1006400069E570E080913E0290913F02681B790B52
:1006500080E292E00E94DC0E6CE570E080913E0248
:1006600090913F02681B790B83E292E00E94DC0EBE
:1006700060913E0270913F02675A7F4F86E292E09E
:100680000E94DC0E60913E0270913F02675A7F4FDC
:1006900089E292E00E94DC0E60913E0270913F027E
:1006A000D7C08A8190E00E94CB015BC100D00F923D
:1006B0006A8170E080E090E02AE530E040E050E0C0
:1006C000EDB7FEB7218332834383548320E030E0CB
:1006D00040E050E0F4E6EF2EF12C012D112DAA247C
:1006E000BB2465010E948D0A709341026093400211
:1006F0000F900F900F900F9088E392E06AE570E002
:100700000E94DC0E6DE570E080913E0290913F0208
:10071000681B790B8DE192E00E94DC0E09E510E088
:1007200080913E0290913F02B801681B790B80E2F4
:1007300092E00E94DC0E6CE570E080913E029091A8
:100740003F02681B790B83E292E00E94DC0E8091ED
:100750003E0290913F02B801681B790B86E292E05D
:100760000E94DC0E80913E0290913F02081B190B03
:1007700089E292E0B8010E94DC0E6AE570E08091A7
:100780003E0290913F02681B790B64C000D00F922B
:100790006A8170E080E090E02AE530E040E050E0DF
:1007A000EDB7FEB7218332834383548320E030E0EA
:1007B00040E050E0E4E6EE2EF12C012D112DAA24AC
:1007C000BB2465010E948D0A70934302609342022C
:1007D0000F900F900F900F9088E392E06AE570E021
:1007E0000E94DC0E6091420270914302635A7F4F77
:1007F0008DE192E00E94DC0E609142027091430212
:10080000675A7F4F80E292E00E94DC0E60914202C4
:1008100070914302645A7F4F83E292E00E94DC0EA3
:100820006091420270914302675A7F4F86E292E0E4
:100830000E94DC0E6091420270914302675A7F4F22
:1008400089E292E00E94DC0E6091420270914302C4
:10085000665A7F4F8CE292E07DC084EB90E040913D
:100860002F0250913002609131020E947B0164E6B8
:1008700070E080E090E00E942D0B8AE590E04091CE
:100880002F0250913002609131020E947B0164E698
:1008900070E080E090E00E942D0B80E090E04091BD
:1008A000320250913302609134020E947B0164E66F
:1008B00070E080E090E00E942D0B88E790E040918E
:1008C000320250913302609134020E947B0162E354
:1008D00070E080E090E00E942D0B43C08A8190E0A0
:1008E00040913202509133026091340208C08A81F3
:1008F00090E04091350250913602609137020E949B
:100900007B012FC088E392E060E070E00E94DC0E83
:100910008CE292E06AE570E00E94DC0E89E292E0EF
:1009200069E570E00E94DC0E86E292E069E570E025
:100930000E94DC0E83E292E06CE570E00E94DC0E27
:1009400080E292E069E570E00E94DC0E8DE192E0C9
:100950006DE570E00E94DC0E04C084E694E00E9425
:10096000BE08DF91CF911F910F91FF90EF90DF9024
:10097000CF90BF90AF900895CF93DF9384E694E03B
:100980000E94640805971CF420E030E011C0C6E125
:10099000D2E084E694E00E949508899382E0CB310E
:1009A000D807B9F7CE0105970E941A0221E030E07E
:1009B000C901DF91CF9108950E94BC0461E070E00D
:1009C00080E090E00E942D0B08956F927F928F92AD
:1009D0009F92AF92BF92CF92DF92EF92FF920F93CE
:1009E0001F936CE2662E62E0762EC30163E270E034
:1009F0000E94F40F59E2852E52E0952EC40162E266
:100A000070E00E94F40F46E2A42E42E0B42EC5012D
:100A100061E270E00E94F40F33E2C32E32E0D32E85
:100A2000C60160E270E00E94F40F20E2E22E22E0B4
:100A3000F22EC7016FE170E00E94F40F0DE112E0A9
:100A4000C8016EE170E00E94F40FC3016AE570E036
:100A50000E94DC0EC40169E570E00E94DC0EC50155
:100A600069E570E00E94DC0EC6016CE570E00E9452
:100A7000DC0EC70169E570E00E94DC0EC8016DE57F
:100A800070E00E94DC0E0BE312E0C80169E170E047
:100A90000E94F40FC80160E070E00E94DC0E9FE24B
:100AA000A92E92E0B92EC50168E170E00E94F40F12
:100AB00082E3C82E82E0D82EC60166E170E00E9473
:100AC000F40F05E3E02E02E0F02EC70167E170E0CD
:100AD0000E94F40F08E312E0C80166E270E00E9491
:100AE000F40FC5016AE570E00E94DC0EC60168E7FC
:100AF00070E00E94DC0EC70160E070E00E94DC0E36
:100B0000C80160E070E00E94DC0E8DE061E00E94B0
:100B1000FC0C0E9409021F910F91FF90EF90DF9053
:100B2000CF90BF90AF909F908F907F906F900895DF
:100B300008951F920F920FB60F920BB60F921124C9
:100B40002F933F934F938F939F93EF93FF938091B6
:100B5000C00082FD1DC04091C600209184023091EA
:100B600085022F5F3F4F2F733070809186029091E6
:100B700087022817390771F0E0918402F09185020D
:100B8000EC5BFD4F4083309385022093840202C0CA
:100B90008091C600FF91EF919F918F914F913F916E
:100BA0002F910F900BBE0F900FBE0F901F901895B6
:100BB00008951F920F920FB60F920BB60F92112449
:100BC0002F933F934F938F939F93EF93FF93809136
:100BD000C80082FD1DC04091CE0020910C033091D1
:100BE0000D032F5F3F4F2F73307080910E03909154
:100BF0000F032817390771F0E0910C03F0910D03F2
:100C0000E453FD4F408330930D0320930C0302C047
:100C10008091CE00FF91EF919F918F914F913F91E5
:100C20002F910F900BBE0F900FBE0F901F90189535
:100C300008951F920F920FB60F920BB60F921124C8
:100C40002F933F934F938F939F93EF93FF938091B5
:100C5000D00082FD1DC04091D600209194033091B8
:100C600095032F5F3F4F2F733070809196039091C3
:100C700097032817390771F0E0919403F0919503D9
:100C8000EC5AFC4F4083309395032093940302C0A9
:100C90008091D600FF91EF919F918F914F913F915D
:100CA0002F910F900BBE0F900FBE0F901F901895B5
:100CB00008951F920F920FB60F920BB60F92112448
:100CC0002F933F934F938F939F93EF93FF93809135
:100CD000300182FD1DC04091360120911C043091ED
:100CE0001D042F5F3F4F2F73307080911E04909131
:100CF0001F042817390771F0E0911C04F0911D04BE
:100D0000E452FC4F408330931D0420931C0402C026
:100D100080913601FF91EF919F918F914F913F917B
:100D20002F910F900BBE0F900FBE0F901F90189534
:100D3000E0917004F0917104E05CFF4F819191911A
:100D400020813181821B930B8F739070892B11F05E
:100D50000E949805E0919204F0919304E05CFF4FAB
:100D60008191919120813181821B930B8F739070BF
:100D7000892B11F00E94D805E091B404F091B504DC
:100D8000E05CFF4F8191919120813181821B930B17
:100D90008F739070892B11F00E941806E091D60491
:100DA000F091D704E05CFF4F8191919120813181D6
:100DB000821B930B8F739070892B11F00E94580641
:100DC00008951F920F920FB60F920BB60F92112437
:100DD0002F933F938F939F93EF93FF932091C8029C
:100DE0003091C9028091CA029091CB02281739072D
:100DF00031F48091C1008F7D8093C10014C0E091D7
:100E0000CA02F091CB02E857FD4F20818091CA02BF
:100E10009091CB0201968F7390709093CB02809348
:100E2000CA022093C600FF91EF919F918F913F914D
:100E30002F910F900BBE0F900FBE0F901F90189523
:100E40001F920F920FB60F920BB60F9211242F9391
:100E50003F938F939F93EF93FF9320915003309193
:100E6000510380915203909153032817390731F4AD
:100E70008091C9008F7D8093C90014C0E091520316
:100E8000F0915303E05FFC4F2081809152039091D9
:100E9000530301968F739070909353038093520382
:100EA0002093CE00FF91EF919F918F913F912F91D1
:100EB0000F900BBE0F900FBE0F901F9018951F92B2
:100EC0000F920FB60F920BB60F9211242F933F93F0
:100ED0008F939F93EF93FF932091D8033091D90381
:100EE0008091DA039091DB032817390731F4809160
:100EF000D1008F7D8093D10014C0E091DA03F0918E
:100F0000DB03E856FC4F20818091DA039091DB03EC
:100F100001968F7390709093DB038093DA03209394
:100F2000D600FF91EF919F918F913F912F910F905C
:100F30000BBE0F900FBE0F901F9018951F920F922F
:100F40000FB60F920BB60F9211242F933F938F93EE
:100F50009F93EF93FF9320916004309161048091FF
:100F60006204909163042817390731F480913101AC
:100F70008F7D8093310114C0E0916204F09163048D
:100F8000E05EFB4F208180916204909163040196A2
:100F90008F73907090936304809362042093360162
:100FA000FF91EF919F918F913F912F910F900BBEE9
:100FB0000F900FBE0F901F901895AF92BF92DF92C7
:100FC000EF92FF920F931F93CF93DF93EC017A017F
:100FD0008B01DD24403081EE580780E0680780E017
:100FE000780711F0DD24D39491E0A92EB12CEC897F
:100FF000FD89DD2069F0C50108A002C0880F991F96
:101000000A94E2F7808360E079E08DE390E005C028
:10101000108260E874E88EE190E0A80197010E94D8
:10102000B311215030404040504056954795379578
:10103000279580E12030380720F0DD2011F0DD24F5
:10104000D6CFE889F9893083EA89FB89208319A200
:10105000EE89FF89408121E030E0C9010C8C02C09B
:10106000880F991F0A94E2F7482B4083EE89FF8985
:101070004081C9010D8C02C0880F991F0A94E2F7C4
:10108000482B4083EE89FF894081C9010E8C02C044
:10109000880F991F0A94E2F7482B4083EE89FF8955
:1010A00080810F8C02C0220F331F0A94E2F7209533
:1010B00028232083DF91CF911F910F91FF90EF9014
:1010C000DF90BF90AF900895DC011C96ED91FC91EC
:1010D0001D97E05CFF4F2191319180819181281B08
:1010E000390B2F733070C9010895DC011C96ED9106
:1010F000FC911D97E05CFF4F20813181E054F0406E
:10110000DF01AE5BBF4F8D919C9111972817390776
:1011100019F42FEF3FEF07C08D919C91E80FF91F55
:101120008081282F30E0C9010895DC011C96ED91E3
:10113000FC911D97E05CFF4F20813181E054F0402D
:10114000DF01AE5BBF4F8D919C9111972817390736
:1011500019F42FEF3FEF10C08D919C911197E80F7C
:10116000F91F20818D919C91119701968F7390703A
:1011700011969C938E9330E0C9010895DC019196FD
:101180008C919197882339F05496ED91FC91559765
:10119000808186FFF9CF91961C920895CF93DF93BB
:1011A000EC01EE85FF85E05CFF4F20813181E0544A
:1011B000F0402F5F3F4F2F733070DF01AE5BBF4FAA
:1011C0008D919C91119728173907D1F3E05CFF4F5F
:1011D00080819181E054F040E80FF91F6083EE8533
:1011E000FF85E05CFF4F31832083EE89FF892081FA
:1011F00081E090E00F8C02C0880F991F0A94E2F7FB
:10120000282B208381E089A3EC89FD89808180647B
:10121000808381E090E0DF91CF9108951F93109239
:1012200067041092660428EE33E040E050E020931B
:1012300068043093690440936A0450936B046AE035
:1012400072E0709365046093640484E492E0909388
:1012500071048093700488E892E090937304809303
:10126000720485EC90E0909375048093740484EC90
:1012700090E0909377048093760480EC90E09093D4
:1012800079048093780481EC90E090937B048093C0
:101290007A0482EC90E090937D0480937C0486EC49
:1012A00090E090937F0480937E0414E01093800478
:1012B000B3E0B0938104A7E0A0938204F5E0F0933B
:1012C0008304E1E0E093840410928904109288047E
:1012D00020938A0430938B0440938C0450938D04A4
:1012E00070938704609386048CEC92E0909393044F
:1012F0008093920480E193E090939504809394040A
:101300008DEC90E090939704809396048CEC90E0A1
:10131000909399048093980488EC90E090939B04B8
:1013200080939A0489EC90E090939D0480939C04B0
:101330008AEC90E090939F0480939E048EEC90E062
:101340009093A1048093A0041093A204B093A304EB
:10135000A093A404F093A504E093A6041092AB0418
:101360001092AA042093AC043093AD044093AE04D1
:101370005093AF047093A9046093A80484E593E0AC
:101380009093B5048093B40488E993E09093B704F4
:101390008093B60485ED90E09093B9048093B804EF
:1013A00084ED90E09093BB048093BA0480ED90E0CC
:1013B0009093BD048093BC0481ED90E09093BF04B2
:1013C0008093BE0482ED90E09093C1048093C004AA
:1013D00086ED90E09093C3048093C2041093C404FC
:1013E000B093C504A093C604F093C704E093C80467
:1013F0001092CD041092CC042093CE043093CF04ED
:101400004093D0045093D1047093CB046093CA04EA
:101410008CED93E09093D7048093D60480E294E01F
:101420009093D9048093D80485E391E09093DB04F2
:101430008093DA0484E391E09093DD048093DC04EC
:1014400080E391E09093DF048093DE0481E391E0F8
:101450009093E1048093E00482E391E09093E304AD
:101460008093E20486E391E09093E5048093E404A2
:101470001093E604B093E704A093E804F093E90422
:10148000E093EA041F910895CF92DF92EF92FF92CA
:101490000F931F93CF93DF937C016B018A01C0E010
:1014A000D0E00FC0D6016D916D01D701ED91FC9197
:1014B0000190F081E02DC7011995C80FD91F015087
:1014C00010400115110571F7CE01DF91CF911F91E9
:1014D0000F91FF90EF90DF90CF900895CF93DF931F
:1014E000EC016115710519F420E030E00FC0DB015B
:1014F0000D900020E9F71197A61BB70BE881F98141
:101500000280F381E02DAD0119959C01C901DF91A5
:10151000CF9108950E946E0A08952F923F924F92A4
:101520005F926F927F928F929F92AF92BF92CF9273
:10153000DF92EF92FF920F931F93DF93CF93CDB77C
:10154000DEB73B014C0119012A016E897F89888D24
:10155000998D6A197B098C099D09621A730A840A9C
:10156000950AA40193010E947511E218F308040979
:101570001509A80197010E94D5112A0D3B1D4C1D8C
:101580005D1DB901CA01CF91DF911F910F91FF90AD
:10159000EF90DF90CF90BF90AF909F908F907F9013
:1015A0006F905F904F903F902F900895CF93DF936F
:1015B0000E94860B0E94E504C8E9D6E00E94DC0484
:1015C0002097E1F30E949806F9CF1F920F920FB671
:1015D0000F9211242F933F938F939F93AF93BF93B9
:1015E0008091F0049091F104A091F204B091F30481
:1015F0003091F4040196A11DB11D232F2D5F2D37CD
:1016000020F02D570196A11DB11D2093F404809365
:10161000F0049093F104A093F204B093F30480914A
:10162000EC049091ED04A091EE04B091EF040196CA
:10163000A11DB11D8093EC049093ED04A093EE04E2
:10164000B093EF04BF91AF919F918F913F912F91F4
:101650000F900FBE0F901F9018959B01AC017FB7A4
:10166000F8948091EC049091ED04A091EE04B09177
:10167000EF0466B5A89B05C06F3F19F00196A11D48
:10168000B11D7FBFBA2FA92F982F8827860F911DD4
:10169000A11DB11D62E0880F991FAA1FBB1F6A958B
:1016A000D1F7BC012DC0FFB7F8948091EC04909164
:1016B000ED04A091EE04B091EF04E6B5A89B05C03F
:1016C000EF3F19F00196A11DB11DFFBFBA2FA92F41
:1016D000982F88278E0F911DA11DB11DE2E0880F64
:1016E000991FAA1FBB1FEA95D1F7861B970B885E2F
:1016F0009340C8F2215030404040504068517C4FE8
:10170000211531054105510571F60895789484B588
:10171000826084BD84B5816084BD85B5826085BDED
:1017200085B5816085BDEEE6F0E0808181608083D3
:10173000E1E8F0E0108280818260808380818160B6
:101740008083E0E8F0E0808181608083E1EBF0E07D
:10175000808184608083E0EBF0E080818160808321
:10176000E1E9F0E080818260808380818160808314
:10177000E0E9F0E0808181608083E1EAF0E080814F
:1017800082608083808181608083E0EAF0E08081F4
:1017900081608083E1E2F1E08081826080838081EA
:1017A00081608083E0E2F1E0808181608083EAE70C
:1017B000F0E080818460808380818260808380818A
:1017C000816080838081806880831092C100089549
:1017D000382F863308F0365320917B00832F86956F
:1017E0008695869590E08170907043E0880F991FF0
:1017F0004A95E1F7277F282B20937B003770809153
:1018000005028295880F880F807C832B80937C0053
:1018100080917A00806480937A0080917A0086FDBE
:10182000FCCF2091780040917900942F80E030E047
:10183000282B392BC90108951F93CF93DF93182FBD
:10184000EB0161E00E94FC0C209709F4CAC0CF3F75
:10185000D10509F4C9C0E12FF0E0EC50FE4F8491AE
:10186000893009F466C08A30B0F48430F1F18530F3
:1018700040F4823059F1833070F5813009F0AEC008
:1018800020C0873009F443C0883008F048C0863053
:1018900009F0A4C034C08D3009F478C08E3038F41B
:1018A0008B3009F45AC08C3008F066C04CC08031CF
:1018B00009F480C0813109F487C08F3009F08EC0EF
:1018C0006FC084B5806884BDC7BD92C084B5806296
:1018D00084BDC8BD8DC080918000806880938000E9
:1018E000D0938900C093880083C08091800080627B
:1018F00080938000D0938B00C0938A0079C0809140
:10190000B00080688093B000C093B30071C0809134
:10191000B00080628093B000C093B40069C0809131
:101920009000806880939000D0939900C0939800B5
:101930005FC080919000806280939000D0939B0064
:10194000C0939A0055C08091900088608093900069
:10195000D0939D00C0939C004BC08091A0008068F4
:101960008093A0008091A0008F7B8093A000D093F3
:10197000A900C093A8003CC08091A0008062809321
:10198000A000D093AB00C093AA0032C08091A00009
:1019900088608093A000D093AD00C093AC0028C0B5
:1019A00080912001806880932001D0932901C09309
:1019B00028011EC080912001806280932001D09375
:1019C0002B01C0932A0114C080912001886080936C
:1019D0002001D0932D01C0932C010AC0C038D1053D
:1019E0001CF4812F60E002C0812F61E00E94AF0DE6
:1019F000DF91CF911F910895CF93DF93482F50E04F
:101A0000CA0182559E4FFC01349148595E4FFA013C
:101A10008491882369F190E0880F991FFC01E65EAC
:101A2000FE4FA591B491FC01EC5CFE4FC591D491A1
:101A3000662351F42FB7F8948C91932F90958923B6
:101A40008C93888189230BC0623061F42FB7F8949E
:101A50008C91932F909589238C938881832B8883F5
:101A60002FBF06C09FB7F8948C91832B8C939FBF98
:101A7000DF91CF910895893009F449C08A30A0F4EC
:101A8000843051F1853040F4823079F1833000F5B3
:101A9000813009F063C026C0873079F1883098F52D
:101AA000863009F05BC025C08D3009F442C08E300D
:101AB00028F48B30B1F18C30C0F52DC0803109F4A1
:101AC00042C0813109F445C08F3009F047C037C0AA
:101AD000809180008F7703C0809180008F7D8093FC
:101AE0008000089584B58F7702C084B58F7D84BD52
:101AF00008958091B0008F7703C08091B0008F7DF2
:101B00008093B0000895809190008F7707C08091F6
:101B100090008F7D03C080919000877F809390001C
:101B200008958091A0008F7707C08091A0008F7DDD
:101B300003C08091A000877F8093A00008958091CA
:101B400020018F7703C0809120018F7D8093200139
:101B5000089580912001877F809320010895FF924E
:101B60000F931F93F62E482F50E0CA018C509E4FC2
:101B7000FC012491CA0182559E4FFC0114914859E1
:101B80005E4FFA0104910023C9F0222319F0822F3D
:101B90000E943B0DE02FF0E0EE0FFF1FEC5CFE4FCC
:101BA000A591B4919FB7F894FF2021F48C911095E2
:101BB000812302C08C91812B8C939FBF1F910F9129
:101BC000FF9008950F931F93482F50E0CA018C5047
:101BD0009E4FFC012491CA0182559E4FFC01049145
:101BE00048595E4FFA011491112319F420E030E0B6
:101BF00015C0222319F0822F0E943B0D812F90E007
:101C0000880F991F825B9E4FFC01A591B4918C9126
:101C100020E030E0802311F021E030E0C9011F9185
:101C20000F910895FC018091F504803390F4808336
:101C30008F5F8093F504815090E0FC01EE0FFF1F51
:101C4000E80FF91FEA50FB4F88EB9BE092838183FA
:101C500008958FEF80830895FC0120812033B8F52B
:101C60008181992787FD909548E850E0481B590BE2
:101C7000440F551F440F551F6417750784F0828168
:101C8000992787FD909548E552E0481B590B440F72
:101C9000551F440F551F641775070CF4AB014250D4
:101CA0005040CA01AA2797FDA095BA2F880F991F07
:101CB000AA1FBB1F4FB7F89430E0F901EE0FFF1FCA
:101CC000E20FF31FEA50FB4F928381834FBF0895C9
:101CD000FC0180818F3F19F420E030E016C090E0D5
:101CE000FC01EE0FFF1FE80FF91FEA50FB4F2181A7
:101CF000328183E0220F331F8A95E1F7B4E03695F5
:101D00002795BA95E1F72E5F3F4FC9010895AF922D
:101D1000BF92CF92DF92EF92FF920F931F938C01AD
:101D20000E94680E00D00F920196AA2797FDA095F9
:101D3000BA2FF8016181772767FD709528E830E0B8
:101D4000261B370B220F331F220F331F442737FD6B
:101D50004095542F6281772767FD7095E8E5EE2E58
:101D6000E2E0FE2EE61AF70AEE0CFF1CEE0CFF1C5A
:101D70000027F7FC0095102F64EBA62EB12CC12C88
:101D8000D12CEDB7FEB7A182B282C382D482BC014E
:101D9000CD01AA24BB2465010E948D0A0F900F90EB
:101DA0000F900F90CB011F910F91FF90EF90DF905C
:101DB000CF90BF90AF900895AF92BF92CF92DF9235
:101DC000EF92FF920F931F93CF93DF93EC019B0150
:101DD00082E0603278070CF048C077FF03C020E053
:101DE00030E005C0653B710514F024EB30E000D015
:101DF0000F92B901882777FD8095982F2981332785
:101E000027FD3095E8E8AE2EB12CA21AB30AAA0C31
:101E1000BB1CAA0CBB1CCC24B7FCC094DC2CEA81F4
:101E2000FF27E7FDF09528E532E02E1B3F0B220F40
:101E3000331F220F331F442737FD4095542FEDB732
:101E4000FEB7218332834383548320E030E040E0B7
:101E500050E004EBE02EF12C012D112D0E948D0A93
:101E60009B010F900F900F900F90CE01B9010E942F
:101E70002C0EDF91CF911F910F91FF90EF90DF908B
:101E8000CF90BF90AF900895CF92DF92EF92FF92E4
:101E90001F93CF93DF93EC01162F7A01690188819C
:101EA000803308F093C0862F61E00E94FC0C88818B
:101EB00090E0FC01EE0FFF1FE80FF91FEA50FB4F07
:101EC0001F738081807C812B808380E292E08E1959
:101ED0009F0964E070E00E94A011698380E699E0A8
:101EE0008C199D0964E070E00E94A0116A83A881AA
:101EF0008A2F6CE00E949411682F70E0AB01440FB0
:101F0000551F460F571F440F551F440F551F20E004
:101F100030E0C901840F951FFC01EE0FFF1FE80F91
:101F2000F91FEA50FB4F808186FD44C02F5F3F4F71
:101F30002C30310571F753C01092800082E08093FD
:101F400081001092850010928400B19A80916F00F8
:101F5000826080936F002EC06230710569F4109228
:101F6000900082E08093910010929500109294006E
:101F700088BB809371001EC06330710569F41092B4
:101F8000A00082E08093A1001092A5001092A4000E
:101F900089BB809372000EC0672B61F41092200100
:101FA00082E08093210110922501109224018ABBC6
:101FB000809373008A2F90E0FC01EE0FFF1FE80F63
:101FC000F91FEA50FB4F8081806480838881DF9114
:101FD000CF911F91FF90EF90DF90CF9008956130E7
:101FE000710509F0B9CFA8CF40E252E020E639E010
:101FF0000E94440F0895EF92FF920F931F93CF9387
:10200000DF938B017A01EC01DC01AA57BA4F8C9166
:1020100087FF04C0FB011182108237C0AE01440F5C
:10202000551F4C0F5D1F440F551F440F551F2C911A
:10203000332727FD3095240F351F8091F50490E05C
:102040002817390714F58C91992787FD9095840FEF
:10205000951FFC01EE0FFF1FE80FF91FEA50FB4F21
:10206000808186FF12C08C91992787FD9095840FFF
:10207000951FFC01EE0FFF1FE80FF91FEA50FB4F01
:1020800080818F7360E00E94AF0DDE01AA57BA4FC6
:102090008C918F5F8C93AE01440F551F4C0F5D1FC9
:1020A000440F551F440F551F2C91332727FD3095A2
:1020B000240F351F8091F50490E0281739070CF0A4
:1020C0004DC08C918C300CF049C0F80120813181D9
:1020D0008C91992787FD9095840F951FFC01EE0F39
:1020E000FF1FE80FF91FEA50FB4F81819281280FF3
:1020F000391FF701318320838C91992787FD9095B3
:10210000840F951FFC01EE0FFF1FE80FF91FEA5027
:10211000FB4F808186FF2AC08C91992787FD90957F
:10212000840F951FFC01EE0FFF1FE80FF91FEA5007
:10213000FB4F80818F7361E00E94AF0D17C080E478
:102140009CE904C0F801808191810496F701918394
:102150008083CA57DA4F8FEF888308C0F8018081E7
:102160009181049680549C4950F3ECCFDF91CF913C
:102170001F910F91FF90EF9008951F920F920FB64D
:102180000F920BB60F9211242F933F934F935F93AF
:102190006F937F938F939F93AF93BF93EF93FF932F
:1021A00080E090E064E271E048E251E00E94FB0FC1
:1021B000FF91EF91BF91AF919F918F917F916F911F
:1021C0005F914F913F912F910F900BBE0F900FBEDB
:1021D0000F901F9018951F920F920FB60F920BB68B
:1021E0000F9211242F933F934F935F936F937F939D
:1021F0008F939F93AF93BF93EF93FF9383E090E010
:1022000064EA70E048EA50E00E94FB0FFF91EF9112
:10221000BF91AF919F918F917F916F915F914F91FE
:102220003F912F910F900BBE0F900FBE0F901F90FC
:1022300018951F920F920FB60F920BB60F921124A2
:102240002F933F934F935F936F937F938F939F93BE
:10225000AF93BF93EF93FF9382E090E064E970E067
:1022600048E950E00E94FB0FFF91EF91BF91AF91C1
:102270009F918F917F916F915F914F913F912F919E
:102280000F900BBE0F900FBE0F901F9018951F92CE
:102290000F920FB60F920BB60F9211242F933F930C
:1022A0004F935F936F937F938F939F93AF93BF935E
:1022B000EF93FF9381E090E064E870E048E850E03D
:1022C0000E94FB0FFF91EF91BF91AF919F918F9172
:1022D0007F916F915F914F913F912F910F900BBE26
:1022E0000F900FBE0F901F901895629FD001739FA3
:1022F000F001829FE00DF11D649FE00DF11D929FA2
:10230000F00D839FF00D749FF00D659FF00D9927E0
:10231000729FB00DE11DF91F639FB00DE11DF91F04
:10232000BD01CF0111240895991B79E004C0991FC4
:10233000961708F0961B881F7A95C9F7809508951F
:1023400097FB092E07260AD077FD04D049D006D086
:1023500000201AF4709561957F4F0895F6F79095D7
:1023600081959F4F0895A1E21A2EAA1BBB1BFD0168
:102370000DC0AA1FBB1FEE1FFF1FA217B307E40764
:10238000F50720F0A21BB30BE40BF50B661F771FBC
:10239000881F991F1A9469F760957095809590959C
:1023A0009B01AC01BD01CF01089597FB092E0526C5
:1023B0000ED057FD04D0D7DF0AD0001C38F450955A
:1023C0004095309521953F4F4F4F5F4F0895F6F759
:1023D00090958095709561957F4F8F4F9F4F089591
:1023E000AA1BBB1B51E107C0AA1FBB1FA617B7073B
:1023F00010F0A61BB70B881F991F5A95A9F7809557
:102400009095BC01CD010895EE0FFF1F0590F4914A
:08241000E02D1994F894FFCFB0
:1024180073796E63000100000000CE08440A640866
:0624280095087508BE08CE
:00000001FF
